{
  "contractName": "SupplyChain",
  "abi": [
    {
      "inputs": [],
      "stateMutability": "payable",
      "type": "constructor",
      "payable": true
    },
    {
      "anonymous": false,
      "inputs": [
        {
          "indexed": false,
          "internalType": "address",
          "name": "account",
          "type": "address"
        }
      ],
      "name": "ConsumerAdded",
      "type": "event"
    },
    {
      "anonymous": false,
      "inputs": [
        {
          "indexed": false,
          "internalType": "address",
          "name": "account",
          "type": "address"
        }
      ],
      "name": "ConsumerRemoved",
      "type": "event"
    },
    {
      "anonymous": false,
      "inputs": [
        {
          "indexed": false,
          "internalType": "address",
          "name": "account",
          "type": "address"
        }
      ],
      "name": "DistributorAdded",
      "type": "event"
    },
    {
      "anonymous": false,
      "inputs": [
        {
          "indexed": false,
          "internalType": "address",
          "name": "account",
          "type": "address"
        }
      ],
      "name": "DistributorRemoved",
      "type": "event"
    },
    {
      "anonymous": false,
      "inputs": [
        {
          "indexed": true,
          "internalType": "address",
          "name": "account",
          "type": "address"
        }
      ],
      "name": "FarmerAdded",
      "type": "event"
    },
    {
      "anonymous": false,
      "inputs": [
        {
          "indexed": true,
          "internalType": "address",
          "name": "account",
          "type": "address"
        }
      ],
      "name": "FarmerRemoved",
      "type": "event"
    },
    {
      "anonymous": false,
      "inputs": [
        {
          "indexed": false,
          "internalType": "uint256",
          "name": "upc",
          "type": "uint256"
        }
      ],
      "name": "ForSale",
      "type": "event"
    },
    {
      "anonymous": false,
      "inputs": [
        {
          "indexed": false,
          "internalType": "uint256",
          "name": "upc",
          "type": "uint256"
        }
      ],
      "name": "Harvested",
      "type": "event"
    },
    {
      "anonymous": false,
      "inputs": [
        {
          "indexed": false,
          "internalType": "uint256",
          "name": "upc",
          "type": "uint256"
        }
      ],
      "name": "Packed",
      "type": "event"
    },
    {
      "anonymous": false,
      "inputs": [
        {
          "indexed": false,
          "internalType": "uint256",
          "name": "upc",
          "type": "uint256"
        }
      ],
      "name": "Processed",
      "type": "event"
    },
    {
      "anonymous": false,
      "inputs": [
        {
          "indexed": false,
          "internalType": "uint256",
          "name": "upc",
          "type": "uint256"
        }
      ],
      "name": "Purchased",
      "type": "event"
    },
    {
      "anonymous": false,
      "inputs": [
        {
          "indexed": false,
          "internalType": "uint256",
          "name": "upc",
          "type": "uint256"
        }
      ],
      "name": "Received",
      "type": "event"
    },
    {
      "anonymous": false,
      "inputs": [
        {
          "indexed": false,
          "internalType": "address",
          "name": "account",
          "type": "address"
        }
      ],
      "name": "RetailerAdded",
      "type": "event"
    },
    {
      "anonymous": false,
      "inputs": [
        {
          "indexed": false,
          "internalType": "address",
          "name": "account",
          "type": "address"
        }
      ],
      "name": "RetailerRemoved",
      "type": "event"
    },
    {
      "anonymous": false,
      "inputs": [
        {
          "indexed": false,
          "internalType": "uint256",
          "name": "upc",
          "type": "uint256"
        }
      ],
      "name": "Shipped",
      "type": "event"
    },
    {
      "anonymous": false,
      "inputs": [
        {
          "indexed": false,
          "internalType": "uint256",
          "name": "upc",
          "type": "uint256"
        }
      ],
      "name": "Sold",
      "type": "event"
    },
    {
      "anonymous": false,
      "inputs": [
        {
          "indexed": true,
          "internalType": "address",
          "name": "oldOwner",
          "type": "address"
        },
        {
          "indexed": true,
          "internalType": "address",
          "name": "newOwner",
          "type": "address"
        }
      ],
      "name": "TransferOwnership",
      "type": "event"
    },
    {
      "inputs": [
        {
          "internalType": "address",
          "name": "account",
          "type": "address"
        }
      ],
      "name": "addConsumer",
      "outputs": [],
      "stateMutability": "nonpayable",
      "type": "function"
    },
    {
      "inputs": [
        {
          "internalType": "address",
          "name": "account",
          "type": "address"
        }
      ],
      "name": "addDistributor",
      "outputs": [],
      "stateMutability": "nonpayable",
      "type": "function"
    },
    {
      "inputs": [
        {
          "internalType": "address",
          "name": "account",
          "type": "address"
        }
      ],
      "name": "addFarmer",
      "outputs": [],
      "stateMutability": "nonpayable",
      "type": "function"
    },
    {
      "inputs": [
        {
          "internalType": "address",
          "name": "account",
          "type": "address"
        }
      ],
      "name": "addRetailer",
      "outputs": [],
      "stateMutability": "nonpayable",
      "type": "function"
    },
    {
      "inputs": [
        {
          "internalType": "address",
          "name": "account",
          "type": "address"
        }
      ],
      "name": "isConsumer",
      "outputs": [
        {
          "internalType": "bool",
          "name": "",
          "type": "bool"
        }
      ],
      "stateMutability": "view",
      "type": "function",
      "constant": true
    },
    {
      "inputs": [
        {
          "internalType": "address",
          "name": "account",
          "type": "address"
        }
      ],
      "name": "isDistributor",
      "outputs": [
        {
          "internalType": "bool",
          "name": "",
          "type": "bool"
        }
      ],
      "stateMutability": "view",
      "type": "function",
      "constant": true
    },
    {
      "inputs": [
        {
          "internalType": "address",
          "name": "account",
          "type": "address"
        }
      ],
      "name": "isFarmer",
      "outputs": [
        {
          "internalType": "bool",
          "name": "",
          "type": "bool"
        }
      ],
      "stateMutability": "view",
      "type": "function",
      "constant": true
    },
    {
      "inputs": [],
      "name": "isOwner",
      "outputs": [
        {
          "internalType": "bool",
          "name": "",
          "type": "bool"
        }
      ],
      "stateMutability": "view",
      "type": "function",
      "constant": true
    },
    {
      "inputs": [
        {
          "internalType": "address",
          "name": "account",
          "type": "address"
        }
      ],
      "name": "isRetailer",
      "outputs": [
        {
          "internalType": "bool",
          "name": "",
          "type": "bool"
        }
      ],
      "stateMutability": "view",
      "type": "function",
      "constant": true
    },
    {
      "inputs": [],
      "name": "owner",
      "outputs": [
        {
          "internalType": "address",
          "name": "",
          "type": "address"
        }
      ],
      "stateMutability": "view",
      "type": "function",
      "constant": true
    },
    {
      "inputs": [],
      "name": "renounceConsumer",
      "outputs": [],
      "stateMutability": "nonpayable",
      "type": "function"
    },
    {
      "inputs": [],
      "name": "renounceDistributor",
      "outputs": [],
      "stateMutability": "nonpayable",
      "type": "function"
    },
    {
      "inputs": [],
      "name": "renounceFarmer",
      "outputs": [],
      "stateMutability": "nonpayable",
      "type": "function"
    },
    {
      "inputs": [],
      "name": "renounceOwnership",
      "outputs": [],
      "stateMutability": "nonpayable",
      "type": "function"
    },
    {
      "inputs": [],
      "name": "renounceRetailer",
      "outputs": [],
      "stateMutability": "nonpayable",
      "type": "function"
    },
    {
      "inputs": [
        {
          "internalType": "address",
          "name": "newOwner",
          "type": "address"
        }
      ],
      "name": "transferOwnership",
      "outputs": [],
      "stateMutability": "nonpayable",
      "type": "function"
    },
    {
      "inputs": [],
      "name": "kill",
      "outputs": [],
      "stateMutability": "nonpayable",
      "type": "function"
    },
    {
      "inputs": [
        {
          "internalType": "uint256",
          "name": "_upc",
          "type": "uint256"
        },
        {
          "internalType": "address",
          "name": "_ownerID",
          "type": "address"
        },
        {
          "internalType": "address",
          "name": "_originFarmerID",
          "type": "address"
        },
        {
          "internalType": "string",
          "name": "_originFarmName",
          "type": "string"
        },
        {
          "internalType": "string",
          "name": "_originFarmInformation",
          "type": "string"
        },
        {
          "internalType": "string",
          "name": "_originFarmLatitude",
          "type": "string"
        },
        {
          "internalType": "string",
          "name": "_originFarmLongitude",
          "type": "string"
        },
        {
          "internalType": "uint256",
          "name": "_productID",
          "type": "uint256"
        },
        {
          "internalType": "string",
          "name": "_productNotes",
          "type": "string"
        },
        {
          "internalType": "uint256",
          "name": "_productPrice",
          "type": "uint256"
        }
      ],
      "name": "harvestItem",
      "outputs": [],
      "stateMutability": "nonpayable",
      "type": "function"
    },
    {
      "inputs": [
        {
          "internalType": "uint256",
          "name": "_upc",
          "type": "uint256"
        }
      ],
      "name": "processItem",
      "outputs": [],
      "stateMutability": "nonpayable",
      "type": "function"
    },
    {
      "inputs": [
        {
          "internalType": "uint256",
          "name": "_upc",
          "type": "uint256"
        }
      ],
      "name": "packItem",
      "outputs": [],
      "stateMutability": "nonpayable",
      "type": "function"
    },
    {
      "inputs": [
        {
          "internalType": "uint256",
          "name": "_upc",
          "type": "uint256"
        },
        {
          "internalType": "uint256",
          "name": "_price",
          "type": "uint256"
        }
      ],
      "name": "sellItem",
      "outputs": [],
      "stateMutability": "nonpayable",
      "type": "function"
    },
    {
      "inputs": [
        {
          "internalType": "uint256",
          "name": "_upc",
          "type": "uint256"
        }
      ],
      "name": "buyItem",
      "outputs": [],
      "stateMutability": "payable",
      "type": "function",
      "payable": true
    },
    {
      "inputs": [
        {
          "internalType": "uint256",
          "name": "_upc",
          "type": "uint256"
        }
      ],
      "name": "shipItem",
      "outputs": [],
      "stateMutability": "nonpayable",
      "type": "function"
    },
    {
      "inputs": [
        {
          "internalType": "uint256",
          "name": "_upc",
          "type": "uint256"
        }
      ],
      "name": "receiveItem",
      "outputs": [],
      "stateMutability": "nonpayable",
      "type": "function"
    },
    {
      "inputs": [
        {
          "internalType": "uint256",
          "name": "_upc",
          "type": "uint256"
        }
      ],
      "name": "purchaseItem",
      "outputs": [],
      "stateMutability": "nonpayable",
      "type": "function"
    },
    {
      "inputs": [
        {
          "internalType": "uint256",
          "name": "_upc",
          "type": "uint256"
        }
      ],
      "name": "fetchItemBufferOne",
      "outputs": [
        {
          "internalType": "uint256",
          "name": "itemSKU",
          "type": "uint256"
        },
        {
          "internalType": "uint256",
          "name": "itemUPC",
          "type": "uint256"
        },
        {
          "internalType": "address",
          "name": "ownerID",
          "type": "address"
        },
        {
          "internalType": "address",
          "name": "originFarmerID",
          "type": "address"
        },
        {
          "internalType": "string",
          "name": "originFarmName",
          "type": "string"
        },
        {
          "internalType": "string",
          "name": "originFarmInformation",
          "type": "string"
        },
        {
          "internalType": "string",
          "name": "originFarmLatitude",
          "type": "string"
        },
        {
          "internalType": "string",
          "name": "originFarmLongitude",
          "type": "string"
        }
      ],
      "stateMutability": "view",
      "type": "function",
      "constant": true
    },
    {
      "inputs": [
        {
          "internalType": "uint256",
          "name": "_upc",
          "type": "uint256"
        }
      ],
      "name": "fetchItemBufferTwo",
      "outputs": [
        {
          "internalType": "uint256",
          "name": "itemSKU",
          "type": "uint256"
        },
        {
          "internalType": "uint256",
          "name": "itemUPC",
          "type": "uint256"
        },
        {
          "internalType": "uint256",
          "name": "productID",
          "type": "uint256"
        },
        {
          "internalType": "string",
          "name": "productNotes",
          "type": "string"
        },
        {
          "internalType": "uint256",
          "name": "productPrice",
          "type": "uint256"
        },
        {
          "internalType": "uint256",
          "name": "itemState",
          "type": "uint256"
        },
        {
          "internalType": "address",
          "name": "distributorID",
          "type": "address"
        },
        {
          "internalType": "address",
          "name": "retailerID",
          "type": "address"
        },
        {
          "internalType": "address",
          "name": "consumerID",
          "type": "address"
        }
      ],
      "stateMutability": "view",
      "type": "function",
      "constant": true
    }
  ],
  "bytecode": "0x6080604052336000806101000a81548173ffffffffffffffffffffffffffffffffffffffff021916908373ffffffffffffffffffffffffffffffffffffffff16021790555060008054906101000a900473ffffffffffffffffffffffffffffffffffffffff1673ffffffffffffffffffffffffffffffffffffffff16600073ffffffffffffffffffffffffffffffffffffffff167f5c486528ec3e3f0ea91181cff8116f02bfa350e03b8b6f12e00765adbb5af85c60405160405180910390a3620000d0336200011960201b60201c565b620000e133620001a360201b60201c565b620000f2336200022360201b60201c565b6200010333620002a360201b60201c565b6001600681905550600160058190555062000779565b6200012a816200032360201b60201c565b15620001425762000141816200034760201b60201c565b5b6200015d816001620003a860201b62001f6e1790919060201c565b8073ffffffffffffffffffffffffffffffffffffffff167f2e0ded4123377a3c2bc9a26f1717655a129e2f20752924d42e730ec89c83dbd060405160405180910390a250565b620001b4816200045e60201b60201c565b15620001cc57620001cb816200048260201b60201c565b5b620001e7816002620003a860201b62001f6e1790919060201c565b7fddbf200aa634dc3fb81cfd68583dd1040d1c751d335e1d86b631bde3e977fea88160405162000218919062000728565b60405180910390a150565b6200023481620004d960201b60201c565b156200024c576200024b81620004fd60201b60201c565b5b62000267816003620003a860201b62001f6e1790919060201c565b7f71ae26cad02663e3d92efd6ec56031a80d74a20c0ab4183faa8bf262261c9baa8160405162000298919062000728565b60405180910390a150565b620002b4816200055460201b60201c565b15620002cc57620002cb816200057860201b60201c565b5b620002e7816004620003a860201b62001f6e1790919060201c565b7f28b26e7a3d20aedbc5f8f2ebf7da671c0491723a2b78f47a097b0e46dee071428160405162000318919062000728565b60405180910390a150565b600062000340826001620005cf60201b6200201a1790919060201c565b9050919050565b620003628160016200066260201b620020ac1790919060201c565b8073ffffffffffffffffffffffffffffffffffffffff167fa5e0f060af304ab17dd418c7927e3da3ae7868189bf387aee09ab179ccc572f260405160405180910390a250565b600073ffffffffffffffffffffffffffffffffffffffff168173ffffffffffffffffffffffffffffffffffffffff161415620003e357600080fd5b620003f58282620005cf60201b60201c565b156200040057600080fd5b60018260000160008373ffffffffffffffffffffffffffffffffffffffff1673ffffffffffffffffffffffffffffffffffffffff16815260200190815260200160002060006101000a81548160ff0219169083151502179055505050565b60006200047b826002620005cf60201b6200201a1790919060201c565b9050919050565b6200049d8160026200066260201b620020ac1790919060201c565b7f126174f6cf49c81cdb4a9214c6b8f037bef55b4ec31e4fc776cea2a1c8a88d5981604051620004ce919062000728565b60405180910390a150565b6000620004f6826003620005cf60201b6200201a1790919060201c565b9050919050565b620005188160036200066260201b620020ac1790919060201c565b7fdb7176e79cffef81cb01767dd0447a0b24bb72ca9778d4b245581086b2a7e6db8160405162000549919062000728565b60405180910390a150565b600062000571826004620005cf60201b6200201a1790919060201c565b9050919050565b620005938160046200066260201b620020ac1790919060201c565b7fe3f5ed5f263f1f01764a96edfc7d025f511ec5f7d180e8816908b78bcf74f09881604051620005c4919062000728565b60405180910390a150565b60008073ffffffffffffffffffffffffffffffffffffffff168273ffffffffffffffffffffffffffffffffffffffff1614156200060b57600080fd5b8260000160008373ffffffffffffffffffffffffffffffffffffffff1673ffffffffffffffffffffffffffffffffffffffff16815260200190815260200160002060009054906101000a900460ff16905092915050565b600073ffffffffffffffffffffffffffffffffffffffff168173ffffffffffffffffffffffffffffffffffffffff1614156200069d57600080fd5b620006af8282620005cf60201b60201c565b620006b957600080fd5b60008260000160008373ffffffffffffffffffffffffffffffffffffffff1673ffffffffffffffffffffffffffffffffffffffff16815260200190815260200160002060006101000a81548160ff0219169083151502179055505050565b620007228162000745565b82525050565b60006020820190506200073f600083018462000717565b92915050565b6000620007528262000759565b9050919050565b600073ffffffffffffffffffffffffffffffffffffffff82169050919050565b612d1c80620007896000396000f3fe60806040526004361061019c5760003560e01c806380fc0ce4116100ec578063b94290691161008a578063e7fb74c711610064578063e7fb74c71461056f578063f2fde38b1461058b578063f30fc480146105b4578063f61c899a146105dd5761019c565b8063b9429069146104f2578063d38ea5bf1461052f578063db0e6a2f146105585761019c565b80638ec4f505116100c65780638ec4f505146104385780638f0c86fa146104615780638f32d59b1461049e578063a26be999146104c95761019c565b806380fc0ce4146103b9578063834ff739146103d05780638da5cb5b1461040d5761019c565b806361e6982d11610159578063715018a611610133578063715018a61461030c5780637250e2241461032357806377c459131461034c57806380c3f96d146103905761019c565b806361e6982d14610299578063644241db146102b057806366225ff9146102c75761019c565b8063112940f9146101a15780632d923561146101ca57806341c0e1b5146101f357806349dae7661461020a5780635da09b881461023357806361c7d59f14610270575b600080fd5b3480156101ad57600080fd5b506101c860048036038101906101c3919061266b565b610606565b005b3480156101d657600080fd5b506101f160048036038101906101ec9190612810565b610612565b005b3480156101ff57600080fd5b506102086107f1565b005b34801561021657600080fd5b50610231600480360381019061022c9190612694565b610819565b005b34801561023f57600080fd5b5061025a6004803603810190610255919061266b565b6109ca565b60405161026791906128cd565b60405180910390f35b34801561027c57600080fd5b50610297600480360381019061029291906126bd565b6109e7565b005b3480156102a557600080fd5b506102ae610df0565b005b3480156102bc57600080fd5b506102c5610dfb565b005b3480156102d357600080fd5b506102ee60048036038101906102e99190612694565b610e06565b6040516103039998979695949392919061299d565b60405180910390f35b34801561031857600080fd5b50610321611030565b005b34801561032f57600080fd5b5061034a6004803603810190610345919061266b565b6110ff565b005b34801561035857600080fd5b50610373600480360381019061036e9190612694565b61110b565b604051610387989796959493929190612903565b60405180910390f35b34801561039c57600080fd5b506103b760048036038101906103b2919061266b565b61144a565b005b3480156103c557600080fd5b506103ce611456565b005b3480156103dc57600080fd5b506103f760048036038101906103f2919061266b565b611461565b60405161040491906128cd565b60405180910390f35b34801561041957600080fd5b5061042261147e565b60405161042f91906128b2565b60405180910390f35b34801561044457600080fd5b5061045f600480360381019061045a919061266b565b6114a7565b005b34801561046d57600080fd5b506104886004803603810190610483919061266b565b6114b3565b60405161049591906128cd565b60405180910390f35b3480156104aa57600080fd5b506104b36114d0565b6040516104c091906128cd565b60405180910390f35b3480156104d557600080fd5b506104f060048036038101906104eb9190612694565b611527565b005b3480156104fe57600080fd5b506105196004803603810190610514919061266b565b6116da565b60405161052691906128cd565b60405180910390f35b34801561053b57600080fd5b5061055660048036038101906105519190612694565b6116f7565b005b34801561056457600080fd5b5061056d61189e565b005b61058960048036038101906105849190612694565b6118a9565b005b34801561059757600080fd5b506105b260048036038101906105ad919061266b565b611bc0565b005b3480156105c057600080fd5b506105db60048036038101906105d69190612694565b611bdd565b005b3480156105e957600080fd5b5061060460048036038101906105ff9190612694565b611da0565b005b61060f81612157565b50565b816002600781111561064d577f4e487b7100000000000000000000000000000000000000000000000000000000600052602160045260246000fd5b60076000838152602001908152602001600020600b0160009054906101000a900460ff1660078111156106a9577f4e487b7100000000000000000000000000000000000000000000000000000000600052602160045260246000fd5b146106b357600080fd5b6007600084815260200190815260200160002060020160009054906101000a900473ffffffffffffffffffffffffffffffffffffffff168073ffffffffffffffffffffffffffffffffffffffff163373ffffffffffffffffffffffffffffffffffffffff161461072257600080fd5b61072b336116da565b61073457600080fd5b600360076000868152602001908152602001600020600b0160006101000a81548160ff02191690836007811115610794577f4e487b7100000000000000000000000000000000000000000000000000000000600052602160045260246000fd5b02179055508260076000868152602001908152602001600020600a01819055507fa96ae0fc3224ebd79eebfe54bd130cc9cb94416cddd1f2386115e00b72532468846040516107e391906128e8565b60405180910390a150505050565b6107f96114d0565b15610817573373ffffffffffffffffffffffffffffffffffffffff16ff5b565b8060006007811115610854577f4e487b7100000000000000000000000000000000000000000000000000000000600052602160045260246000fd5b60076000838152602001908152602001600020600b0160009054906101000a900460ff1660078111156108b0577f4e487b7100000000000000000000000000000000000000000000000000000000600052602160045260246000fd5b146108ba57600080fd5b6007600083815260200190815260200160002060020160009054906101000a900473ffffffffffffffffffffffffffffffffffffffff168073ffffffffffffffffffffffffffffffffffffffff163373ffffffffffffffffffffffffffffffffffffffff161461092957600080fd5b600160076000858152602001908152602001600020600b0160006101000a81548160ff02191690836007811115610989577f4e487b7100000000000000000000000000000000000000000000000000000000600052602160045260246000fd5b02179055507f5afe3b1bf87069693c075da5c22a98d63d1aef98a30dbbe538d0781a98b77ee5836040516109bd91906128e8565b60405180910390a1505050565b60006109e082600361201a90919063ffffffff16565b9050919050565b6109f0336116da565b6109f957600080fd5b604051806101e0016040528060065481526020018b81526020018a73ffffffffffffffffffffffffffffffffffffffff1681526020018973ffffffffffffffffffffffffffffffffffffffff16815260200188815260200187815260200186815260200185815260200184815260200183815260200182815260200160006007811115610aaf577f4e487b7100000000000000000000000000000000000000000000000000000000600052602160045260246000fd5b8152602001600073ffffffffffffffffffffffffffffffffffffffff168152602001600073ffffffffffffffffffffffffffffffffffffffff168152602001600073ffffffffffffffffffffffffffffffffffffffff16815250600760008c8152602001908152602001600020600082015181600001556020820151816001015560408201518160020160006101000a81548173ffffffffffffffffffffffffffffffffffffffff021916908373ffffffffffffffffffffffffffffffffffffffff16021790555060608201518160030160006101000a81548173ffffffffffffffffffffffffffffffffffffffff021916908373ffffffffffffffffffffffffffffffffffffffff1602179055506080820151816004019080519060200190610bda929190612536565b5060a0820151816005019080519060200190610bf7929190612536565b5060c0820151816006019080519060200190610c14929190612536565b5060e0820151816007019080519060200190610c31929190612536565b506101008201518160080155610120820151816009019080519060200190610c5a929190612536565b5061014082015181600a015561016082015181600b0160006101000a81548160ff02191690836007811115610cb8577f4e487b7100000000000000000000000000000000000000000000000000000000600052602160045260246000fd5b021790555061018082015181600b0160016101000a81548173ffffffffffffffffffffffffffffffffffffffff021916908373ffffffffffffffffffffffffffffffffffffffff1602179055506101a082015181600c0160006101000a81548173ffffffffffffffffffffffffffffffffffffffff021916908373ffffffffffffffffffffffffffffffffffffffff1602179055506101c082015181600d0160006101000a81548173ffffffffffffffffffffffffffffffffffffffff021916908373ffffffffffffffffffffffffffffffffffffffff1602179055509050506001600654610da79190612aa3565b6006819055507f8e55ccfc9778ff8eba1646d765cf1982537ce0f9257054a17b48aad7452501838a604051610ddc91906128e8565b60405180910390a150505050505050505050565b610df9336121bd565b565b610e043361220b565b565b600080600060606000806000806000600760008b8152602001908152602001600020600001549850600760008b8152602001908152602001600020600101549750600760008b8152602001908152602001600020600801549650600760008b81526020019081526020016000206009018054610e8190612bb7565b80601f0160208091040260200160405190810160405280929190818152602001828054610ead90612bb7565b8015610efa5780601f10610ecf57610100808354040283529160200191610efa565b820191906000526020600020905b815481529060010190602001808311610edd57829003601f168201915b50505050509550600760008b8152602001908152602001600020600a01549450600760008b8152602001908152602001600020600b0160009054906101000a900460ff166007811115610f76577f4e487b7100000000000000000000000000000000000000000000000000000000600052602160045260246000fd5b9350600760008b8152602001908152602001600020600b0160019054906101000a900473ffffffffffffffffffffffffffffffffffffffff169250600760008b8152602001908152602001600020600c0160009054906101000a900473ffffffffffffffffffffffffffffffffffffffff169150600760008b8152602001908152602001600020600d0160009054906101000a900473ffffffffffffffffffffffffffffffffffffffff1690509193959799909294969850565b6110386114d0565b61104157600080fd5b600073ffffffffffffffffffffffffffffffffffffffff1660008054906101000a900473ffffffffffffffffffffffffffffffffffffffff1673ffffffffffffffffffffffffffffffffffffffff167f5c486528ec3e3f0ea91181cff8116f02bfa350e03b8b6f12e00765adbb5af85c60405160405180910390a360008060006101000a81548173ffffffffffffffffffffffffffffffffffffffff021916908373ffffffffffffffffffffffffffffffffffffffff160217905550565b61110881612259565b50565b600080600080606080606080600760008a8152602001908152602001600020600001549750600760008a8152602001908152602001600020600101549650600760008a815260200190815260200160002060020160009054906101000a900473ffffffffffffffffffffffffffffffffffffffff169550600760008a815260200190815260200160002060030160009054906101000a900473ffffffffffffffffffffffffffffffffffffffff169450600760008a815260200190815260200160002060040180546111dc90612bb7565b80601f016020809104026020016040519081016040528092919081815260200182805461120890612bb7565b80156112555780601f1061122a57610100808354040283529160200191611255565b820191906000526020600020905b81548152906001019060200180831161123857829003601f168201915b50505050509350600760008a8152602001908152602001600020600501805461127d90612bb7565b80601f01602080910402602001604051908101604052809291908181526020018280546112a990612bb7565b80156112f65780601f106112cb576101008083540402835291602001916112f6565b820191906000526020600020905b8154815290600101906020018083116112d957829003601f168201915b50505050509250600760008a8152602001908152602001600020600601805461131e90612bb7565b80601f016020809104026020016040519081016040528092919081815260200182805461134a90612bb7565b80156113975780601f1061136c57610100808354040283529160200191611397565b820191906000526020600020905b81548152906001019060200180831161137a57829003601f168201915b50505050509150600760008a815260200190815260200160002060070180546113bf90612bb7565b80601f01602080910402602001604051908101604052809291908181526020018280546113eb90612bb7565b80156114385780601f1061140d57610100808354040283529160200191611438565b820191906000526020600020905b81548152906001019060200180831161141b57829003601f168201915b50505050509050919395975091939597565b611453816122bf565b50565b61145f33612331565b565b600061147782600461201a90919063ffffffff16565b9050919050565b60008060009054906101000a900473ffffffffffffffffffffffffffffffffffffffff16905090565b6114b08161238b565b50565b60006114c982600261201a90919063ffffffff16565b9050919050565b60008060009054906101000a900473ffffffffffffffffffffffffffffffffffffffff1673ffffffffffffffffffffffffffffffffffffffff163373ffffffffffffffffffffffffffffffffffffffff1614905090565b8060056007811115611562577f4e487b7100000000000000000000000000000000000000000000000000000000600052602160045260246000fd5b60076000838152602001908152602001600020600b0160009054906101000a900460ff1660078111156115be577f4e487b7100000000000000000000000000000000000000000000000000000000600052602160045260246000fd5b146115c857600080fd5b6115dc33600361201a90919063ffffffff16565b6115e557600080fd5b600660076000848152602001908152602001600020600b0160006101000a81548160ff02191690836007811115611645577f4e487b7100000000000000000000000000000000000000000000000000000000600052602160045260246000fd5b02179055503360076000848152602001908152602001600020600c0160006101000a81548173ffffffffffffffffffffffffffffffffffffffff021916908373ffffffffffffffffffffffffffffffffffffffff1602179055507fa8142743f8f70a4c26f3691cf4ed59718381fb2f18070ec52be1f1022d855557826040516116ce91906128e8565b60405180910390a15050565b60006116f082600161201a90919063ffffffff16565b9050919050565b8060066007811115611732577f4e487b7100000000000000000000000000000000000000000000000000000000600052602160045260246000fd5b60076000838152602001908152602001600020600b0160009054906101000a900460ff16600781111561178e577f4e487b7100000000000000000000000000000000000000000000000000000000600052602160045260246000fd5b1461179857600080fd5b6117a133611461565b6117aa57600080fd5b6007806000848152602001908152602001600020600b0160006101000a81548160ff02191690836007811115611809577f4e487b7100000000000000000000000000000000000000000000000000000000600052602160045260246000fd5b02179055503360076000848152602001908152602001600020600d0160006101000a81548173ffffffffffffffffffffffffffffffffffffffff021916908373ffffffffffffffffffffffffffffffffffffffff1602179055507f653d56639fee6b566a5c804764e9689de38645f0b733df89a36a1b7b42173dd88260405161189291906128e8565b60405180910390a15050565b6118a7336123f1565b565b80600360078111156118e4577f4e487b7100000000000000000000000000000000000000000000000000000000600052602160045260246000fd5b60076000838152602001908152602001600020600b0160009054906101000a900460ff166007811115611940577f4e487b7100000000000000000000000000000000000000000000000000000000600052602160045260246000fd5b1461194a57600080fd5b60076000838152602001908152602001600020600a01548034101561196e57600080fd5b8261198333600261201a90919063ffffffff16565b61198c57600080fd5b600460076000868152602001908152602001600020600b0160006101000a81548160ff021916908360078111156119ec577f4e487b7100000000000000000000000000000000000000000000000000000000600052602160045260246000fd5b02179055503360076000868152602001908152602001600020600b0160016101000a81548173ffffffffffffffffffffffffffffffffffffffff021916908373ffffffffffffffffffffffffffffffffffffffff1602179055506007600085815260200190815260200160002060030160009054906101000a900473ffffffffffffffffffffffffffffffffffffffff1673ffffffffffffffffffffffffffffffffffffffff166108fc60076000878152602001908152602001600020600a01549081150290604051600060405180830381858888f19350505050158015611ad8573d6000803e3d6000fd5b507f92f64ca637d023f354075a4be751b169c1a8a9ccb6d33cdd0cb352054399572784604051611b0891906128e8565b60405180910390a1600060076000838152602001908152602001600020600a0154905060008134611b399190612af9565b905060076000848152602001908152602001600020600d0160009054906101000a900473ffffffffffffffffffffffffffffffffffffffff1673ffffffffffffffffffffffffffffffffffffffff166108fc829081150290604051600060405180830381858888f19350505050158015611bb7573d6000803e3d6000fd5b50505050505050565b611bc86114d0565b611bd157600080fd5b611bda8161243f565b50565b8060016007811115611c18577f4e487b7100000000000000000000000000000000000000000000000000000000600052602160045260246000fd5b60076000838152602001908152602001600020600b0160009054906101000a900460ff166007811115611c74577f4e487b7100000000000000000000000000000000000000000000000000000000600052602160045260246000fd5b14611c7e57600080fd5b6007600083815260200190815260200160002060020160009054906101000a900473ffffffffffffffffffffffffffffffffffffffff168073ffffffffffffffffffffffffffffffffffffffff163373ffffffffffffffffffffffffffffffffffffffff1614611ced57600080fd5b611cf6336116da565b611cff57600080fd5b600260076000858152602001908152602001600020600b0160006101000a81548160ff02191690836007811115611d5f577f4e487b7100000000000000000000000000000000000000000000000000000000600052602160045260246000fd5b02179055507f9b3b66e2380b690bae22c73ef1428fb0c91e72fe14a4b6defa13035214187aff83604051611d9391906128e8565b60405180910390a1505050565b8060046007811115611ddb577f4e487b7100000000000000000000000000000000000000000000000000000000600052602160045260246000fd5b60076000838152602001908152602001600020600b0160009054906101000a900460ff166007811115611e37577f4e487b7100000000000000000000000000000000000000000000000000000000600052602160045260246000fd5b14611e4157600080fd5b60076000838152602001908152602001600020600b0160019054906101000a900473ffffffffffffffffffffffffffffffffffffffff168073ffffffffffffffffffffffffffffffffffffffff163373ffffffffffffffffffffffffffffffffffffffff1614611eb057600080fd5b611ec433600261201a90919063ffffffff16565b611ecd57600080fd5b600560076000858152602001908152602001600020600b0160006101000a81548160ff02191690836007811115611f2d577f4e487b7100000000000000000000000000000000000000000000000000000000600052602160045260246000fd5b02179055507ff00b9a5725b80c54016f42114f6ed7792d22eecb116011c4afac29c57bef6c9583604051611f6191906128e8565b60405180910390a1505050565b600073ffffffffffffffffffffffffffffffffffffffff168173ffffffffffffffffffffffffffffffffffffffff161415611fa857600080fd5b611fb2828261201a565b15611fbc57600080fd5b60018260000160008373ffffffffffffffffffffffffffffffffffffffff1673ffffffffffffffffffffffffffffffffffffffff16815260200190815260200160002060006101000a81548160ff0219169083151502179055505050565b60008073ffffffffffffffffffffffffffffffffffffffff168273ffffffffffffffffffffffffffffffffffffffff16141561205557600080fd5b8260000160008373ffffffffffffffffffffffffffffffffffffffff1673ffffffffffffffffffffffffffffffffffffffff16815260200190815260200160002060009054906101000a900460ff16905092915050565b600073ffffffffffffffffffffffffffffffffffffffff168173ffffffffffffffffffffffffffffffffffffffff1614156120e657600080fd5b6120f0828261201a565b6120f957600080fd5b60008260000160008373ffffffffffffffffffffffffffffffffffffffff1673ffffffffffffffffffffffffffffffffffffffff16815260200190815260200160002060006101000a81548160ff0219169083151502179055505050565b61216081611461565b1561216f5761216e816121bd565b5b612183816004611f6e90919063ffffffff16565b7f28b26e7a3d20aedbc5f8f2ebf7da671c0491723a2b78f47a097b0e46dee07142816040516121b291906128b2565b60405180910390a150565b6121d18160046120ac90919063ffffffff16565b7fe3f5ed5f263f1f01764a96edfc7d025f511ec5f7d180e8816908b78bcf74f0988160405161220091906128b2565b60405180910390a150565b61221f8160026120ac90919063ffffffff16565b7f126174f6cf49c81cdb4a9214c6b8f037bef55b4ec31e4fc776cea2a1c8a88d598160405161224e91906128b2565b60405180910390a150565b612262816114b3565b15612271576122708161220b565b5b612285816002611f6e90919063ffffffff16565b7fddbf200aa634dc3fb81cfd68583dd1040d1c751d335e1d86b631bde3e977fea8816040516122b491906128b2565b60405180910390a150565b6122c8816116da565b156122d7576122d681612331565b5b6122eb816001611f6e90919063ffffffff16565b8073ffffffffffffffffffffffffffffffffffffffff167f2e0ded4123377a3c2bc9a26f1717655a129e2f20752924d42e730ec89c83dbd060405160405180910390a250565b6123458160016120ac90919063ffffffff16565b8073ffffffffffffffffffffffffffffffffffffffff167fa5e0f060af304ab17dd418c7927e3da3ae7868189bf387aee09ab179ccc572f260405160405180910390a250565b612394816109ca565b156123a3576123a2816123f1565b5b6123b7816003611f6e90919063ffffffff16565b7f71ae26cad02663e3d92efd6ec56031a80d74a20c0ab4183faa8bf262261c9baa816040516123e691906128b2565b60405180910390a150565b6124058160036120ac90919063ffffffff16565b7fdb7176e79cffef81cb01767dd0447a0b24bb72ca9778d4b245581086b2a7e6db8160405161243491906128b2565b60405180910390a150565b600073ffffffffffffffffffffffffffffffffffffffff168173ffffffffffffffffffffffffffffffffffffffff16141561247957600080fd5b8073ffffffffffffffffffffffffffffffffffffffff1660008054906101000a900473ffffffffffffffffffffffffffffffffffffffff1673ffffffffffffffffffffffffffffffffffffffff167f5c486528ec3e3f0ea91181cff8116f02bfa350e03b8b6f12e00765adbb5af85c60405160405180910390a3806000806101000a81548173ffffffffffffffffffffffffffffffffffffffff021916908373ffffffffffffffffffffffffffffffffffffffff16021790555050565b82805461254290612bb7565b90600052602060002090601f01602090048101928261256457600085556125ab565b82601f1061257d57805160ff19168380011785556125ab565b828001600101855582156125ab579182015b828111156125aa57825182559160200191906001019061258f565b5b5090506125b891906125bc565b5090565b5b808211156125d55760008160009055506001016125bd565b5090565b60006125ec6125e784612a56565b612a31565b90508281526020810184848401111561260457600080fd5b61260f848285612b75565b509392505050565b60008135905061262681612cb8565b92915050565b600082601f83011261263d57600080fd5b813561264d8482602086016125d9565b91505092915050565b60008135905061266581612ccf565b92915050565b60006020828403121561267d57600080fd5b600061268b84828501612617565b91505092915050565b6000602082840312156126a657600080fd5b60006126b484828501612656565b91505092915050565b6000806000806000806000806000806101408b8d0312156126dd57600080fd5b60006126eb8d828e01612656565b9a505060206126fc8d828e01612617565b995050604061270d8d828e01612617565b98505060608b013567ffffffffffffffff81111561272a57600080fd5b6127368d828e0161262c565b97505060808b013567ffffffffffffffff81111561275357600080fd5b61275f8d828e0161262c565b96505060a08b013567ffffffffffffffff81111561277c57600080fd5b6127888d828e0161262c565b95505060c08b013567ffffffffffffffff8111156127a557600080fd5b6127b18d828e0161262c565b94505060e06127c28d828e01612656565b9350506101008b013567ffffffffffffffff8111156127e057600080fd5b6127ec8d828e0161262c565b9250506101206127fe8d828e01612656565b9150509295989b9194979a5092959850565b6000806040838503121561282357600080fd5b600061283185828601612656565b925050602061284285828601612656565b9150509250929050565b61285581612b2d565b82525050565b61286481612b3f565b82525050565b600061287582612a87565b61287f8185612a92565b935061288f818560208601612b84565b61289881612ca7565b840191505092915050565b6128ac81612b6b565b82525050565b60006020820190506128c7600083018461284c565b92915050565b60006020820190506128e2600083018461285b565b92915050565b60006020820190506128fd60008301846128a3565b92915050565b600061010082019050612919600083018b6128a3565b612926602083018a6128a3565b612933604083018961284c565b612940606083018861284c565b8181036080830152612952818761286a565b905081810360a0830152612966818661286a565b905081810360c083015261297a818561286a565b905081810360e083015261298e818461286a565b90509998505050505050505050565b6000610120820190506129b3600083018c6128a3565b6129c0602083018b6128a3565b6129cd604083018a6128a3565b81810360608301526129df818961286a565b90506129ee60808301886128a3565b6129fb60a08301876128a3565b612a0860c083018661284c565b612a1560e083018561284c565b612a2361010083018461284c565b9a9950505050505050505050565b6000612a3b612a4c565b9050612a478282612be9565b919050565b6000604051905090565b600067ffffffffffffffff821115612a7157612a70612c78565b5b612a7a82612ca7565b9050602081019050919050565b600081519050919050565b600082825260208201905092915050565b6000612aae82612b6b565b9150612ab983612b6b565b9250827fffffffffffffffffffffffffffffffffffffffffffffffffffffffffffffffff03821115612aee57612aed612c1a565b5b828201905092915050565b6000612b0482612b6b565b9150612b0f83612b6b565b925082821015612b2257612b21612c1a565b5b828203905092915050565b6000612b3882612b4b565b9050919050565b60008115159050919050565b600073ffffffffffffffffffffffffffffffffffffffff82169050919050565b6000819050919050565b82818337600083830152505050565b60005b83811015612ba2578082015181840152602081019050612b87565b83811115612bb1576000848401525b50505050565b60006002820490506001821680612bcf57607f821691505b60208210811415612be357612be2612c49565b5b50919050565b612bf282612ca7565b810181811067ffffffffffffffff82111715612c1157612c10612c78565b5b80604052505050565b7f4e487b7100000000000000000000000000000000000000000000000000000000600052601160045260246000fd5b7f4e487b7100000000000000000000000000000000000000000000000000000000600052602260045260246000fd5b7f4e487b7100000000000000000000000000000000000000000000000000000000600052604160045260246000fd5b6000601f19601f8301169050919050565b612cc181612b2d565b8114612ccc57600080fd5b50565b612cd881612b6b565b8114612ce357600080fd5b5056fea2646970667358221220e7d59189cd736c47503b3fdb89fad2c514de9f0a11fac246317614aeb465fe2764736f6c63430008040033",
  "immutableReferences": {},
  "source": "//SPDX-License-Identifier: MIT\n\npragma solidity ^0.8.0;\n\nimport \"../coffeecore/Ownable.sol\";\nimport \"../coffeeaccesscontrol/FarmerRole.sol\";\nimport \"../coffeeaccesscontrol/DistributorRole.sol\";\nimport \"../coffeeaccesscontrol/RetailerRole.sol\";\nimport \"../coffeeaccesscontrol/ConsumerRole.sol\";\n\n// Define a contract 'Supplychain'\ncontract SupplyChain is\n    Ownable,\n    FarmerRole,\n    DistributorRole,\n    RetailerRole,\n    ConsumerRole\n{\n    // Define 'owner'\n    // address owner;\n\n    // Define a variable called 'upc' for Universal Product Code (UPC)\n    uint256 upc;\n\n    // Define a variable called 'sku' for Stock Keeping Unit (SKU)\n    uint256 sku;\n\n    // Define a public mapping 'items' that maps the UPC to an Item.\n    mapping(uint256 => Item) items;\n\n    // Define a public mapping 'itemsHistory' that maps the UPC to an array of TxHash,\n    // that track its journey through the supply chain -- to be sent from DApp.\n    mapping(uint256 => string[]) itemsHistory;\n\n    // Define enum 'State' with the following values:\n    enum State {\n        Harvested, // 0\n        Processed, // 1\n        Packed, // 2\n        ForSale, // 3\n        Sold, // 4\n        Shipped, // 5\n        Received, // 6\n        Purchased // 7\n    }\n\n    State constant defaultState = State.Harvested;\n\n    // Define a struct 'Item' with the following fields:\n    struct Item {\n        uint256 sku; // Stock Keeping Unit (SKU)\n        uint256 upc; // Universal Product Code (UPC), generated by the Farmer, goes on the package, can be verified by the Consumer\n        address ownerID; // Metamask-Ethereum address of the current owner as the product moves through 8 stages\n        address originFarmerID; // Metamask-Ethereum address of the Farmer\n        string originFarmName; // Farmer Name\n        string originFarmInformation; // Farmer Information\n        string originFarmLatitude; // Farm Latitude\n        string originFarmLongitude; // Farm Longitude\n        uint256 productID; // Product ID potentially a combination of upc + sku\n        string productNotes; // Product Notes\n        uint256 productPrice; // Product Price\n        State itemState; // Product State as represented in the enum above\n        address distributorID; // Metamask-Ethereum address of the Distributor\n        address retailerID; // Metamask-Ethereum address of the Retailer\n        address consumerID; // Metamask-Ethereum address of the Consumer\n    }\n\n    // Define 8 events with the same 8 state values and accept 'upc' as input argument\n    event Harvested(uint256 upc);\n    event Processed(uint256 upc);\n    event Packed(uint256 upc);\n    event ForSale(uint256 upc);\n    event Sold(uint256 upc);\n    event Shipped(uint256 upc);\n    event Received(uint256 upc);\n    event Purchased(uint256 upc);\n\n    // Define a modifer that verifies the Caller\n    modifier verifyCaller(address _address) {\n        require(msg.sender == _address);\n        _;\n    }\n\n    // Define a modifier that checks if the paid amount is sufficient to cover the price\n    modifier paidEnough(uint256 _price) {\n        require(msg.value >= _price);\n        _;\n    }\n\n    // Define a modifier that checks the price and refunds the remaining balance\n    modifier checkValue(uint256 _upc) {\n        _;\n        uint256 _price = items[_upc].productPrice;\n        uint256 amountToReturn = msg.value - _price;\n        payable(items[_upc].consumerID).transfer(amountToReturn);\n    }\n\n    // Define a modifier that checks if an item.state of a upc is Harvested\n    modifier harvested(uint256 _upc) {\n        require(items[_upc].itemState == State.Harvested);\n        _;\n    }\n\n    // Define a modifier that checks if an item.state of a upc is Processed\n    modifier processed(uint256 _upc) {\n        require(items[_upc].itemState == State.Processed);\n        _;\n    }\n\n    // Define a modifier that checks if an item.state of a upc is Packed\n    modifier packed(uint256 _upc) {\n        require(items[_upc].itemState == State.Packed);\n        _;\n    }\n\n    // Define a modifier that checks if an item.state of a upc is ForSale\n    modifier forSale(uint256 _upc) {\n        require(items[_upc].itemState == State.ForSale);\n        _;\n    }\n\n    // Define a modifier that checks if an item.state of a upc is Sold\n    modifier sold(uint256 _upc) {\n        require(items[_upc].itemState == State.Sold);\n        _;\n    }\n\n    // Define a modifier that checks if an item.state of a upc is Shipped\n    modifier shipped(uint256 _upc) {\n        require(items[_upc].itemState == State.Shipped);\n        _;\n    }\n\n    // Define a modifier that checks if an item.state of a upc is Received\n    modifier received(uint256 _upc) {\n        require(items[_upc].itemState == State.Received);\n        _;\n    }\n\n    // Define a modifier that checks if an item.state of a upc is Purchased\n    modifier purchased(uint256 _upc) {\n        require(items[_upc].itemState == State.Purchased);\n        _;\n    }\n\n    // In the constructor set 'owner' to the address that instantiated the contract\n    // and set 'sku' to 1\n    // and set 'upc' to 1\n    constructor() payable {\n        // owner = msg.sender;\n        sku = 1;\n        upc = 1;\n    }\n\n    // Define a function 'kill' if required\n    function kill() public {\n        if (isOwner()) {\n            selfdestruct(payable(msg.sender));\n        }\n    }\n\n    // Define a function 'harvestItem' that allows a farmer to mark an item 'Harvested'\n    function harvestItem(\n        uint256 _upc,\n        address _ownerID,\n        address _originFarmerID,\n        string memory _originFarmName,\n        string memory _originFarmInformation,\n        string memory _originFarmLatitude,\n        string memory _originFarmLongitude,\n        uint256 _productID,\n        string memory _productNotes,\n        uint256 _productPrice\n    ) public onlyFarmer {\n        // Add the new item as part of Harvest\n        items[_upc] = Item({\n            sku: sku,\n            upc: _upc,\n            ownerID: _ownerID,\n            originFarmerID: _originFarmerID,\n            originFarmName: _originFarmName,\n            originFarmInformation: _originFarmInformation,\n            originFarmLatitude: _originFarmLatitude,\n            originFarmLongitude: _originFarmLongitude,\n            productID: _productID,\n            productNotes: _productNotes,\n            productPrice: _productPrice,\n            itemState: State.Harvested,\n            distributorID: address(0),\n            retailerID: address(0),\n            consumerID: address(0)\n        });\n        // Increment sku\n        sku = sku + 1;\n        // Emit the appropriate event\n        emit Harvested(_upc);\n    }\n\n    // Define a function 'processtItem' that allows a farmer to mark an item 'Processed'\n    function processItem(uint256 _upc)\n        public\n        harvested(_upc)\n        verifyCaller(items[_upc].ownerID)\n    {\n        // Update the appropriate fields\n        items[_upc].itemState = State.Processed;\n\n        // Emit the appropriate event\n        emit Processed(_upc);\n    }\n\n    // Define a function 'packItem' that allows a farmer to mark an item 'Packed'\n    function packItem(uint256 _upc)\n        public\n        processed(_upc)\n        verifyCaller(items[_upc].ownerID)\n        onlyFarmer\n    {\n        // Update the appropriate fields\n        items[_upc].itemState = State.Packed;\n\n        // Emit the appropriate event\n        emit Packed(_upc);\n    }\n\n    // Define a function 'sellItem' that allows a farmer to mark an item 'ForSale'\n    function sellItem(uint256 _upc, uint256 _price)\n        public\n        packed(_upc)\n        verifyCaller(items[_upc].ownerID)\n        onlyFarmer\n    {\n        // Update the appropriate fields\n        items[_upc].itemState = State.ForSale;\n        items[_upc].productPrice = _price;\n\n        // Emit the appropriate event\n        emit ForSale(_upc);\n    }\n\n    // Define a function 'buyItem' that allows the disributor to mark an item 'Sold'\n    // Use the above defined modifiers to check if the item is available for sale, if the buyer has paid enough,\n    // and any excess ether sent is refunded back to the buyer\n    function buyItem(uint256 _upc)\n        public\n        payable\n        forSale(_upc)\n        paidEnough(items[_upc].productPrice)\n        checkValue(_upc)\n        onlyDistributor\n    {\n        // Update the appropriate fields - ownerID, distributorID, itemState\n        // items[_upc].ownerID = msg.sender;\n        items[_upc].itemState = State.Sold;\n        items[_upc].distributorID = msg.sender;\n\n        // Transfer money to farmer\n        // uint256 price = items[_upc].productPrice;\n        payable(items[_upc].originFarmerID).transfer(items[_upc].productPrice);\n\n        // emit the appropriate event\n        emit Sold(_upc);\n    }\n\n    // Define a function 'shipItem' that allows the distributor to mark an item 'Shipped'\n    // Use the above modifers to check if the item is sold\n    function shipItem(uint256 _upc)\n        public\n        sold(_upc)\n        verifyCaller(items[_upc].distributorID)\n        onlyDistributor\n    {\n        // Update the appropriate fields\n        items[_upc].itemState = State.Shipped;\n\n        // Emit the appropriate event\n        emit Shipped(_upc);\n    }\n\n    // Define a function 'receiveItem' that allows the retailer to mark an item 'Received'\n    // Use the above modifiers to check if the item is shipped\n    function receiveItem(uint256 _upc) public shipped(_upc) onlyRetailer {\n        // Update the appropriate fields - ownerID, retailerID, itemState\n        // items[_upc].ownerID = msg.sender;\n        items[_upc].itemState = State.Received;\n        items[_upc].retailerID = msg.sender;\n\n        // Emit the appropriate event\n        emit Received(_upc);\n    }\n\n    // Define a function 'purchaseItem' that allows the consumer to mark an item 'Purchased'\n    // Use the above modifiers to check if the item is received\n    function purchaseItem(uint256 _upc) public received(_upc) onlyConsumer {\n        // Update the appropriate fields - ownerID, consumerID, itemState\n        // items[_upc].ownerID = msg.sender;\n        items[_upc].itemState = State.Purchased;\n        items[_upc].consumerID = msg.sender;\n\n        // Emit the appropriate event\n        emit Purchased(_upc);\n    }\n\n    // Define a function 'fetchItemBufferOne' that fetches the data\n    function fetchItemBufferOne(uint256 _upc)\n        public\n        view\n        returns (\n            uint256 itemSKU,\n            uint256 itemUPC,\n            address ownerID,\n            address originFarmerID,\n            string memory originFarmName,\n            string memory originFarmInformation,\n            string memory originFarmLatitude,\n            string memory originFarmLongitude\n        )\n    {\n        // Assign values to the 8 parameters\n        itemSKU = items[_upc].sku;\n        itemUPC = items[_upc].upc;\n        ownerID = items[_upc].ownerID;\n        originFarmerID = items[_upc].originFarmerID;\n        originFarmName = items[_upc].originFarmName;\n        originFarmInformation = items[_upc].originFarmInformation;\n        originFarmLatitude = items[_upc].originFarmLatitude;\n        originFarmLongitude = items[_upc].originFarmLongitude;\n\n        return (\n            itemSKU,\n            itemUPC,\n            ownerID,\n            originFarmerID,\n            originFarmName,\n            originFarmInformation,\n            originFarmLatitude,\n            originFarmLongitude\n        );\n    }\n\n    // Define a function 'fetchItemBufferTwo' that fetches the data\n    function fetchItemBufferTwo(uint256 _upc)\n        public\n        view\n        returns (\n            uint256 itemSKU,\n            uint256 itemUPC,\n            uint256 productID,\n            string memory productNotes,\n            uint256 productPrice,\n            uint256 itemState,\n            address distributorID,\n            address retailerID,\n            address consumerID\n        )\n    {\n        // Assign values to the 9 parameters\n        itemSKU = items[_upc].sku;\n        itemUPC = items[_upc].upc;\n        productID = items[_upc].productID;\n        productNotes = items[_upc].productNotes;\n        productPrice = items[_upc].productPrice;\n        itemState = uint256(items[_upc].itemState);\n        distributorID = items[_upc].distributorID;\n        retailerID = items[_upc].retailerID;\n        consumerID = items[_upc].consumerID;\n\n        return (\n            itemSKU,\n            itemUPC,\n            productID,\n            productNotes,\n            productPrice,\n            itemState,\n            distributorID,\n            retailerID,\n            consumerID\n        );\n    }\n\n}\n",
  "sourcePath": "/Users/endikaaguilera/Desktop/Udacity Blockchain/udacity_blockchain_p3_supply_chain/contracts/coffeebase/SupplyChain.sol",
  "compiler": {
    "name": "solc",
    "version": "0.8.4+commit.c7e474f2.Emscripten.clang"
  },
  "schemaVersion": "3.4.7",
  "updatedAt": "2022-05-07T10:49:28.470Z",
  "networkType": "ethereum",
  "devdoc": {
    "kind": "dev",
    "methods": {},
    "version": 1
  },
  "userdoc": {
    "kind": "user",
    "methods": {
      "isOwner()": {
        "notice": "Check if the calling address is the owner of the contract"
      },
      "owner()": {
        "notice": "Look up the address of the owner"
      },
      "renounceOwnership()": {
        "notice": "Define a function to renounce ownerhip"
      },
      "transferOwnership(address)": {
        "notice": "Define a public function to transfer ownership"
      }
    },
    "version": 1
  }
}